:020000040000FA
:020000000528D1
:040002000034003492
:06000A0083160313081524
:10001000FF30920070308F008312043092008316FC
:1000200008118316031350309F0083160313051421
:100030008316031311148316031387308100831270
:10004000031381309F006A2025289F182528372018
:100050005220522052205B208316031308154120A2
:1000600083120313831608119F1425283628831240
:1000700003131E08A000831603131E088312A10099
:10008000080003138312A20D220D831203139D0097
:100090009D151D159D101D10831223088312031337
:1000A0009B00080083120313200C20302230210C07
:1000B000213023300800831203130730A408612085
:1000C00008002130A3070318A20A2030A207A40BBE
:1000D00061280800831203130B11FE308100712088
:0800E00008000B1D7128080047
:02400E00E4309C
:00000001FF
