:020000040000FA
:020000000528D1
:040002000034003492
:06000A00831603135030C1
:100010009F008316031305148514F0308600081220
:1000200083120313081683160313111491108316F9
:10003000031320308F00831603138730810083124F
:10004000031381309F00442025284B2038202A208C
:1000500025282928831203131030880683120313DE
:1000600004309F06831603130330910644200800D2
:100070009F183828831603131E0883120313860063
:100080009F140B1D38280800831203130B11FE3038
:10009000810051200800831203130B110C308100E2
:0800A00008000B1D51280800A7
:02400E00E4309C
:00000001FF
