:020000040000FA
:020000000528D1
:040002000034003492
:06000A00831603138316A8
:1000100003130815FF30920070308F0083120430F4
:100020009200831608118316031350309F00831625
:100030000313051483160313111483160313873057
:1000400081008312031301309F0075289F14282814
:100050009F1828283F205D205D205D201F30A005CF
:10006000A20567288316031308154B2083168316F1
:1000700003130811831203139F1428283E288312A8
:1000800003131E08A000A200831603131E08831288
:10009000A100A300080003138312A30CA30C2330B8
:1000A000831203139D009D151D159D101D108312B5
:1000B0002208831203139B0008008312031303100A
:1000C000A00CA10C2008A2002108A30008008312A4
:1000D00003130730A4006C282108A3070318A20A01
:1000E0002008A207A40B6C283228831203130B11DB
:0C00F000FA3081007B280B1D7B2826289D
:02400E00E4309C
:00000001FF
