:020000040000FA
:020000000528D1
:040002000034003492
:06000A00831603138316A8
:1000100003130815FF30920070308F0083120430F4
:100020009200831608118316031350309F00831625
:100030000313051483160313111483160313873057
:1000400081008312031301309F0074289F14282815
:100050009F1828283E205C205C205C201F30A005D3
:10006000A20566288316031308154A208316031376
:100070000811831203139F1428283D2883120313A9
:100080001E08A000A200831603131E088312A100FD
:10009000A300080003138312A30CA30C23088312EC
:1000A00003139D009D151D159D101D108312220820
:1000B000831203139B000800831203130310A00C88
:1000C000A10C2008A2002108A3000800831203133A
:1000D0000730A4006B282108A3070318A20A2008F0
:1000E000A207A40B6B283228831203130B11FA30DA
:0A00F00081007A280B1D7A282628CB
:02400E00E4309C
:00000001FF
